:100000000C942A000C9447000C9447000C94470071
:100010000C9447000C9447000C9447000C94470044
:100020000C9447000C9447000C9447000C94470034
:100030000C9447000C944F010C9447000C9447001B
:100040000C9447000C9447000C9447000C94470014
:100050000C94470011241FBECFE5D8E0DEBFCDBF12
:1000600010E0A0E6B0E0E6E4F4E002C005900D92F6
:10007000A036B107D9F710E0A0E6B0E001C01D92AC
:10008000A236B107E1F70E9461010C9421020C94A1
:100090000000823451F1833420F4813409F07BC0B4
:1000A00007C0833409F43EC0843409F074C057C0DB
:1000B000413069F42AB381E090E0AC0102C0440F02
:1000C000551F6A95E2F7BA01622B6ABB08952AB3FD
:1000D00081E090E0AC0102C0440F551F6A95E2F741
:1000E000BA01609562236ABB0895413069F427B371
:1000F00081E090E0AC0102C0440F551F6A95E2F721
:10010000BA01622B67BB089527B381E090E0AC0190
:1001100002C0440F551F6A95E2F7BA016095622349
:1001200067BB0895413069F424B381E090E0AC01ED
:1001300002C0440F551F6A95E2F7BA01622B64BBF7
:10014000089524B381E090E0AC0102C0440F551F34
:100150006A95E2F7BA016095622364BB0895413065
:1001600069F421B381E090E0AC0102C0440F551F57
:100170006A95E2F7BA01622B61BB089521B381E071
:1001800090E0AC0102C0440F551F6A95E2F7BA0136
:100190006095622361BB0895823451F1833420F469
:1001A000813409F07BC007C0833409F43EC0843435
:1001B00009F074C057C0413069F42BB381E090E07E
:1001C000AC0102C0440F551F6A95E2F7BA01622BD9
:1001D0006BBB08952BB381E090E0AC0102C0440FEB
:1001E000551F6A95E2F7BA01609562236BBB0895CB
:1001F000413069F428B381E090E0AC0102C0440FC3
:10020000551F6A95E2F7BA01622B68BB089528B3BF
:1002100081E090E0AC0102C0440F551F6A95E2F7FF
:10022000BA016095622368BB0895413069F425B333
:1002300081E090E0AC0102C0440F551F6A95E2F7DF
:10024000BA01622B65BB089525B381E090E0AC0153
:1002500002C0440F551F6A95E2F7BA016095622308
:1002600065BB0895413069F422B381E090E0AC01B0
:1002700002C0440F551F6A95E2F7BA01622B62BBB8
:10028000089522B381E090E0AC0102C0440F551FF5
:100290006A95E2F7BA016095622362BB08951F92E6
:1002A0000F920FB60F9211248F9381E0809360001C
:1002B0008CB1809361008F910F900FBE0F901F90B3
:1002C00018950E94E6010E9484010E94B2018FE30A
:1002D0009DE0A3E081509040A040E1F700C0000005
:1002E000809160008130E1F7809161000E94B60149
:1002F000109260008FE39DE0A3E081509040A04009
:10030000E1F700C00000ECCF82E464E041E00E942D
:10031000490082E465E041E00E94490082E466E031
:1003200040E00E94490082E467E041E00E94490009
:1003300083E58DB9089582E464E040E00E944900BD
:1003400082E465E040E00E94490082E466E041E02A
:100350000E94490082E467E040E00E94490080E496
:100360008DB90895C4980895C49A08958FB9779B5C
:10037000FECF8FB10895DC01CB01880F991FAA1F12
:10038000BB1F880F991FAA1FBB1F9C01AD01220F25
:10039000331F441F551F220F331F441F551F60E09A
:1003A00074E284EF90E00E94FF012150304029B9AF
:1003B00030BD86E880BD80E88AB98AB188618AB993
:1003C000789408958CB95D9BFECF089560E875E23E
:1003D00080E090E00E94BB0108950E94E201089530
:1003E000CF93DF93EC018881882331F021960E941E
:1003F000ED0189918823D9F7DF91CF910895A1E28A
:100400001A2EAA1BBB1BFD010DC0AA1FBB1FEE1F8E
:10041000FF1FA217B307E407F50720F0A21BB30BD9
:10042000E40BF50B661F771F881F991F1A9469F755
:1004300060957095809590959B01AC01BD01CF01B1
:060440000895F894FFCFBF
:00000001FF
